{"abi":[{"type":"function","name":"createProxy","inputs":[{"name":"implementation","type":"address","internalType":"address"},{"name":"verifyRandAddress","type":"address","internalType":"address"}],"outputs":[{"name":"","type":"address","internalType":"address"}],"stateMutability":"nonpayable"},{"type":"event","name":"ProxyCreated","inputs":[{"name":"mintProxyAddress","type":"address","indexed":false,"internalType":"address"}],"anonymous":false},{"type":"error","name":"FailedDeployment","inputs":[]},{"type":"error","name":"InsufficientBalance","inputs":[{"name":"balance","type":"uint256","internalType":"uint256"},{"name":"needed","type":"uint256","internalType":"uint256"}]}],"bytecode":{"object":"0x6080806040523461001657610198908161001b8239f35b5f80fdfe60806040908082526004361015610014575f80fd5b5f91823560e01c6325b5672714610029575f80fd5b3461015e578060031936011261015e576004356001600160a01b03808216820361015a57602435918183168093036101565780763d602d80600a3d3981f3363d3d373d3d3d363d7300000062ffffff6e5af43d82803e903d91602b57fd5bf39360881c1617875260781b176020526037600986f0169283156101475750823b156101435781519063485cc95560e01b82523360048301526024820152838160448183875af180156101395761010a575b602083837efffc2da0b561cae30d9826d37709e9421c4725faebc226cbbb7ef5fc5e7349838251848152a151908152f35b67ffffffffffffffff8111610125576020935081525f6100d9565b634e487b7160e01b84526041600452602484fd5b82513d86823e3d90fd5b8380fd5b63b06ebf3d60e01b8152600490fd5b8580fd5b8480fd5b8280fdfea264697066735822122024b6d8f6b176082bf5d95a5dd7021f57ae2ef7b7acb6c015613d72bc8d7a692f64736f6c63430008140033","linkReferences":{}},"methodIdentifiers":{"createProxy(address,address)":"25b56727"},"storageLayout":{"storage":[],"types":{}},"id":27}