{"abi":[{"type":"constructor","inputs":[],"stateMutability":"nonpayable"},{"type":"function","name":"fulfillRandomWords","inputs":[{"name":"_requestId","type":"uint256","internalType":"uint256"},{"name":"_randomWords","type":"uint256[]","internalType":"uint256[]"}],"outputs":[],"stateMutability":"nonpayable"},{"type":"function","name":"getRequestStatus","inputs":[{"name":"_requestId","type":"uint256","internalType":"uint256"}],"outputs":[{"name":"fulfilled","type":"bool","internalType":"bool"},{"name":"randomWords","type":"uint256[]","internalType":"uint256[]"}],"stateMutability":"view"},{"type":"function","name":"initialize","inputs":[{"name":"initialOwner","type":"address","internalType":"address"},{"name":"_verifyRandAddress","type":"address","internalType":"address"}],"outputs":[],"stateMutability":"nonpayable"},{"type":"function","name":"lastRequestId","inputs":[],"outputs":[{"name":"","type":"uint256","internalType":"uint256"}],"stateMutability":"view"},{"type":"function","name":"owner","inputs":[],"outputs":[{"name":"","type":"address","internalType":"address"}],"stateMutability":"view"},{"type":"function","name":"renounceOwnership","inputs":[],"outputs":[],"stateMutability":"nonpayable"},{"type":"function","name":"requestIds","inputs":[{"name":"","type":"uint256","internalType":"uint256"}],"outputs":[{"name":"","type":"uint256","internalType":"uint256"}],"stateMutability":"view"},{"type":"function","name":"requestMapping","inputs":[{"name":"","type":"uint256","internalType":"uint256"}],"outputs":[{"name":"fulfilled","type":"bool","internalType":"bool"}],"stateMutability":"view"},{"type":"function","name":"requestRandomWords","inputs":[{"name":"_requestId","type":"uint256","internalType":"uint256"},{"name":"_numWords","type":"uint256","internalType":"uint256"}],"outputs":[],"stateMutability":"nonpayable"},{"type":"function","name":"setVerifyRand","inputs":[{"name":"_verifyRandAddress","type":"address","internalType":"address"}],"outputs":[],"stateMutability":"nonpayable"},{"type":"function","name":"transferOwnership","inputs":[{"name":"newOwner","type":"address","internalType":"address"}],"outputs":[],"stateMutability":"nonpayable"},{"type":"function","name":"verifyRandAddress","inputs":[],"outputs":[{"name":"","type":"address","internalType":"address"}],"stateMutability":"view"},{"type":"event","name":"FillRandomWords","inputs":[{"name":"requestId","type":"uint256","indexed":false,"internalType":"uint256"},{"name":"randomWords","type":"uint256[]","indexed":false,"internalType":"uint256[]"}],"anonymous":false},{"type":"event","name":"Initialized","inputs":[{"name":"version","type":"uint64","indexed":false,"internalType":"uint64"}],"anonymous":false},{"type":"event","name":"OwnershipTransferred","inputs":[{"name":"previousOwner","type":"address","indexed":true,"internalType":"address"},{"name":"newOwner","type":"address","indexed":true,"internalType":"address"}],"anonymous":false},{"type":"event","name":"RequestSent","inputs":[{"name":"requestId","type":"uint256","indexed":false,"internalType":"uint256"},{"name":"_numWords","type":"uint256","indexed":false,"internalType":"uint256"},{"name":"current","type":"address","indexed":false,"internalType":"address"}],"anonymous":false},{"type":"error","name":"InvalidInitialization","inputs":[]},{"type":"error","name":"NotInitializing","inputs":[]},{"type":"error","name":"OwnableInvalidOwner","inputs":[{"name":"owner","type":"address","internalType":"address"}]},{"type":"error","name":"OwnableUnauthorizedAccount","inputs":[{"name":"account","type":"address","internalType":"address"}]}],"bytecode":{"object":"0x608080604052346100b8577ff0c57e16840df040f15088dc2f81fe391c3923bec73e23a9662efc9c229c6a009081549060ff8260401c166100a957506001600160401b036002600160401b031982821601610064575b604051610a2890816100bd8239f35b6001600160401b031990911681179091556040519081527fc7f505b2f371ae2175ee4913f4499e1f2633a7b5936321eed1cdaeb6115181d290602090a15f8080610055565b63f92ee8a960e01b8152600490fd5b5f80fdfe60406080815260049081361015610014575f80fd5b5f91823560e01c9081631b739ef11461065c57816327f68ce11461061757816338ba461414610410578163485cc955146102ae578163715018a61461024557816382e215ab146102185781638796ba8c146101dc5781638da5cb5b146101a7578163c45a61831461017e578163d8a4676f146100f557508063f2fde38b146100c55763fc2a88c3146100a4575f80fd5b346100c157816003193601126100c1576020906001549051908152f35b5080fd5b82346100f25760203660031901126100f2576100ef6100e2610800565b6100ea6108e8565b610920565b80f35b80fd5b8284346100f257602092836003193601126100c157919091358252600383528082209060ff82541692600180930190825193848784549182815201938352878320925b8882821061016b57886101678989610152828b038361084a565b808051958695151586528501528301906108b5565b0390f35b8454865290940193928201928201610138565b5050346100c157816003193601126100c15760025490516001600160a01b039091168152602090f35b5050346100c157816003193601126100c1575f805160206109d38339815191525490516001600160a01b039091168152602090f35b90503461021457602036600319011261021457359180548310156100f2575061020660209261086c565b91905490519160031b1c8152f35b8280fd5b905034610214576020366003190112610214578160209360ff923581526003855220541690519015158152f35b83346100f257806003193601126100f25761025e6108e8565b5f805160206109d383398151915280546001600160a01b0319811690915581906001600160a01b03167f8be0079c531659141344cd1fd0a4f28419497f9722a3daafe3b4186f6b6457e08280a380f35b9050346102145781600319360112610214576102c8610800565b906024356001600160a01b0381169081900361040c577ff0c57e16840df040f15088dc2f81fe391c3923bec73e23a9662efc9c229c6a0092835460ff81871c16159367ffffffffffffffff821680159081610404575b60011490816103fa575b1590816103f1575b506103e3575067ffffffffffffffff19811660011785556103639190846103c4575b5061035b610991565b6100ea610991565b6bffffffffffffffffffffffff60a01b6002541617600255610383578280f35b805468ff00000000000000001916905551600181527fc7f505b2f371ae2175ee4913f4499e1f2633a7b5936321eed1cdaeb6115181d290602090a15f808280f35b68ffffffffffffffffff1916680100000000000000011785555f610352565b865163f92ee8a960e01b8152fd5b9050155f610330565b303b159150610328565b86915061031e565b8480fd5b839150346100c157826003193601126100c157803560249384359467ffffffffffffffff8087116106135736602388011215610613578685013594818611610601578560051b978451986020976104698983018c61084a565b8a5284888b0191830101913683116105fd5785899101915b8383106105ed5750506002546001600160a01b03163303915061059c9050578351906104ac8261081a565b60019384835284888401938b8552888b5260038a52878b209051151560ff8019835416911617815501925191825194851161058b57600160401b851161058b57505086908254848455808510610561575b5001908752858720875b83811061055057887ff3cb4deb0441dd096356debf166f879d78cadc19e4b94053c8bea6d3940de93a898961054a8e8b80805195869586528501528301906108b5565b0390a180f35b825182820155918701918401610507565b838a528585848c2092830192015b82811061057d5750506104fd565b8b81558a945087910161056f565b634e487b7160e01b8a526041905288fd5b835162461bcd60e51b81529081018690526026818401527f4f6e6c792076657269667952616e642063616e2063616c6c20746869732066756044820152653731ba34b7b760d11b6064820152608490fd5b8235815291810191899101610481565b8980fd5b634e487b7160e01b8752604190528186fd5b8580fd5b83346100f25760203660031901126100f257610631610800565b6106396108e8565b60018060a01b03166bffffffffffffffffffffffff60a01b600254161760025580f35b8383346100c157806003193601126100c1578235906106796108e8565b805160209067ffffffffffffffff90828101828111828210176107ed5784528581528351916106a78361081a565b868352838301918252858752600384528487209251151560ff80198554169116178355600180930191519182519182116107da57600160401b928383116107c7578590825484845580851061079d575b500190885284882084895b84811061078b5750505050508554908110156107785791848261074e85606097957fe697eb68c0228bd7d4e553246a2a86e8402d0895e45092ef8ae87b4cfd29f0169997018a5561086c565b81549060031b9084821b915f19901b1916179055558151928352602435908301523090820152a180f35b634e487b7160e01b865260418752602486fd5b87845194019381840155018590610702565b838b528685848d2092830192015b8281106107b95750506106f7565b8c81558994508891016107ab565b634e487b7160e01b895260418a52602489fd5b634e487b7160e01b885260418952602488fd5b634e487b7160e01b875260418852602487fd5b600435906001600160a01b038216820361081657565b5f80fd5b6040810190811067ffffffffffffffff82111761083657604052565b634e487b7160e01b5f52604160045260245ffd5b90601f8019910116810190811067ffffffffffffffff82111761083657604052565b905f9182548110156108a1578280527f290decd9548b62a8d60345a988386fc84ba6bc95484008f6362f93160ef3e563019190565b634e487b7160e01b83526032600452602483fd5b9081518082526020808093019301915f5b8281106108d4575050505090565b8351855293810193928101926001016108c6565b5f805160206109d3833981519152546001600160a01b0316330361090857565b60405163118cdaa760e01b8152336004820152602490fd5b6001600160a01b03908116908115610979575f805160206109d383398151915280546001600160a01b031981168417909155167f8be0079c531659141344cd1fd0a4f28419497f9722a3daafe3b4186f6b6457e05f80a3565b604051631e4fbdf760e01b81525f6004820152602490fd5b60ff7ff0c57e16840df040f15088dc2f81fe391c3923bec73e23a9662efc9c229c6a005460401c16156109c057565b604051631afcd79f60e31b8152600490fdfe9016d09d72d40fdae2fd8ceac6b6234c7706214fd39c1cd1e609a0528c199300a26469706673582212205acb79525ce43330e6115ce166cbd856bed1d0587f678bed3d351a34f2f38e4064736f6c63430008140033","linkReferences":{}},"methodIdentifiers":{"fulfillRandomWords(uint256,uint256[])":"38ba4614","getRequestStatus(uint256)":"d8a4676f","initialize(address,address)":"485cc955","lastRequestId()":"fc2a88c3","owner()":"8da5cb5b","renounceOwnership()":"715018a6","requestIds(uint256)":"8796ba8c","requestMapping(uint256)":"82e215ab","requestRandomWords(uint256,uint256)":"1b739ef1","setVerifyRand(address)":"27f68ce1","transferOwnership(address)":"f2fde38b","verifyRandAddress()":"c45a6183"},"storageLayout":{"storage":[{"astId":40181,"contract":"src/VerifyRandVRF.sol:VerifyRandVRF","label":"requestIds","offset":0,"slot":"0","type":"t_array(t_uint256)dyn_storage"},{"astId":40183,"contract":"src/VerifyRandVRF.sol:VerifyRandVRF","label":"lastRequestId","offset":0,"slot":"1","type":"t_uint256"},{"astId":40185,"contract":"src/VerifyRandVRF.sol:VerifyRandVRF","label":"verifyRandAddress","offset":0,"slot":"2","type":"t_address"},{"astId":40190,"contract":"src/VerifyRandVRF.sol:VerifyRandVRF","label":"requestMapping","offset":0,"slot":"3","type":"t_mapping(t_uint256,t_struct(RequestStatus)40178_storage)"}],"types":{"t_address":{"encoding":"inplace","label":"address","numberOfBytes":"20"},"t_array(t_uint256)dyn_storage":{"encoding":"dynamic_array","label":"uint256[]","numberOfBytes":"32","base":"t_uint256"},"t_bool":{"encoding":"inplace","label":"bool","numberOfBytes":"1"},"t_mapping(t_uint256,t_struct(RequestStatus)40178_storage)":{"encoding":"mapping","key":"t_uint256","label":"mapping(uint256 => struct VerifyRandVRF.RequestStatus)","numberOfBytes":"32","value":"t_struct(RequestStatus)40178_storage"},"t_struct(RequestStatus)40178_storage":{"encoding":"inplace","label":"struct VerifyRandVRF.RequestStatus","numberOfBytes":"64","members":[{"astId":40174,"contract":"src/VerifyRandVRF.sol:VerifyRandVRF","label":"fulfilled","offset":0,"slot":"0","type":"t_bool"},{"astId":40177,"contract":"src/VerifyRandVRF.sol:VerifyRandVRF","label":"randomWords","offset":0,"slot":"1","type":"t_array(t_uint256)dyn_storage"}]},"t_uint256":{"encoding":"inplace","label":"uint256","numberOfBytes":"32"}}},"id":26}